:10000E0047505320536561726368696E672E2E2EBA
:01001E0000E1
:0E0A0D00C100040E00000000040A00000000FA
:1009D000758921758DFD758BFD758C4B758AFFC2F0
:1009E0008CD2A9D28EC29FD29ED29CD2ACD2AF2240
:10097800C2A68F807F017E00120989D2A57F017EE1
:01098800006E
:10098900D3EF9400EE940040147D0A7C00ED1D70B5
:0D099900011CED4C70F7EF1F70E61E80E3AF
:0109A600222E
:08000300C2A7120978C2A52270
:1009A7007BA07A867901780012079CAC00AD01AE76
:1009B70002AF037B107A27E4F9F812079CEF243083
:0109C700FF30
:0809C800D2A7120978C2A52292
:100948007F381200037F0C1200037F061200037F1A
:10095800011200037FE87E031209897F80120003D9
:0F096800E4FBEB90000E93FF1209C80BBB10F3DA
:01097700225D
:030023000208BA16
:1008BA00C0E0C083C082C0D075D018C2AFC3E509FA
:1008CA009420E50894035027309824C298E599B4F7
:1008DA0024067508007509000509E509AE087002C5
:1008EA000508142400F58274003EF583E599F0D2D8
:0A08FA00AFD0D0D082D083D0E0321E
:100026001209481209D07E047F209000007430F037
:10003600A3DFFCDEFA900000E0B424F9A3E0B447A5
:10004600F4A3E0B450EFA3E0B447EAA3E0B447E575
:10005600A3E0B441E090002CE0643060D82098D54D
:1000660090001FE024D0FFE434FFFE7C007D0A12DE
:1000760006AAAA06AB0790001EE024D0FFE434FFD0
:10008600FE7D641206AAEF2BFFEE3AFE900020E0FA
:1000960024D0FDEC34FFCD2FED3EC3648094804028
:1000A6009490001FE024D0FFE434FFFE7D0A120680
:1000B600AAAA06AB0790001EE024D0FFE434FFFE98
:1000C6007D641206AAEF2BFFEE3AFE900020E02494
:1000D600D0FDEC34FFCD2FFFED3EFED3EF94B4EE12
:1000E60064809480400302003BD28C3000030201FE
:1000F600E77F801200037F541209C87F691209C87E
:100106007F6D1209C87F651209C87F3A1209C89027
:100116000007E0FF7E007C007D0A1206AAA3E02FFE
:10012600FFEC3ECF24F8CF34FDFE7D181206BCABA3
:1001360005EB75F00A842430FF1209C8EB75F00A46
:1001460084E5F02430FF1209C87F2D1209C8A3E008
:10015600FF1209C8A3E0FF1209C87F2D1209C8A320
:10016600E0FF1209C8A3E0FF1209C87F201209C8E0
:100176007F201209C87F201209C87FC01200037FA2
:10018600571209C87F581209C87F3A1209C8900049
:100196002EE0FF1209C8A3E0FF1209C87F2012094A
:1001A600C87F201209C87FC71200037F4A1209C8F8
:1001B6007F441209C87F3A1209C8900031E0FF1245
:1001C60009C8A3E0FF1209C8A3E0FF1209C8A3E00B
:1001D600FF1209C87F201209C87F201209C8020031
:1001E6003B900012E024D0FFE434FFFEE4FCFD7BEC
:1001F600407A42790FF8120711C004C005C006C044
:1002060007900011E024D0FFE434FFFEE4FCFD7B00
:10021600807A967998F8120711D003D002D001D0CF
:1002260000EF2BFFEE3AFEED39FDEC38FCC004C0C2
:1002360005C006C007900013E024D0FFE434FFFE9B
:100246007C007D0A1206AAA3E024D0FDEC34FFCD83
:100256002FFFED3EFEE4FD7BA07A867901F81207BA
:1002660011E47B06FAF9F8120904D003D002D00192
:10027600D000EF2BFFEE3AFEED39FDEC38FCC00462
:10028600C005C006C007900017E024D0FFE434FF85
:10029600FE7C007D641206AAAA06AB07900016E053
:1002A60024D0FFE434FFFE7C037DE81206AAEF2B80
:1002B600FBEE3AFA900018E024D0FFE434FFFE7C0F
:1002C600007D0A1206AAEF2BFFEE3AFEA3E024D029
:1002D600FDEC34FFCD2FFFED3EFE7D0A1206AA7D12
:1002E600061206BCE4FCFDD003D002D001D000EB20
:1002F6002FFFEA3EFEED39FDEC388F118E108D0F83
:10030600F50E7F801200037F571209C87F44120939
:10031600C87F3A1209C87F201209C87B807A96796D
:10032600987800AF11AE10AD0FAC0E1209C17B80EC
:100336007A9679987800AF11AE10AD0FAC0E120711
:100346009CAC00AD01AE02AF037B407A42790F78D8
:10035600001209C17F2E1209C87B407A42790F78B4
:1003660000AF11AE10AD0FAC0E12079CAC00AD0184
:10037600AE02AF037BA07A86790178001209C1AF7D
:1003860011AE10AD0FAC0E1209A7E47B107A27F957
:10039600F8AF11AE10AD0FAC0E12079CAC00AD015C
:1003A600AE02AF037BE87A031209BEE47BE87A0368
:1003B600F9F8AF11AE10AD0FAC0E12079CAC00AD44
:1003C60001AE02AF03E47B64FA1209BFE47B64FA70
:1003D600F9F8AF11AE10AD0FAC0E12079CAC00AD24
:1003E60001AE02AF03E47B0AFA1209BFE47B0AFA04
:1003F600F9F8AF11AE10AD0FAC0E12079CEB24301E
:10040600FF1209C890001CE0FF1209C87F201209DC
:10041600C87F201209C890001FE024D0FFE434FFF3
:10042600FEE4FCFD7B807A967998F8120711C004E9
:10043600C005C006C00790001EE024D0FFE434FFCC
:10044600FEE4FCFDFB7AE179F57805120711D0038D
:10045600D002D001D000EF2BFFEE3AFEED39FDECD5
:1004660038FCC004C005C006C007900020E024D0B8
:10047600FFE434FFFEE4FCFD7B407A42790FF8127C
:100486000711D003D002D001D000EF2BFFEE3AFEC9
:10049600ED39FDEC38FCC004C005C006C00790006D
:1004A60021E024D0FFE434FFFE7C007D0A1206AA78
:1004B600A3E024D0FDEC34FFCD2FFFED3EFEE4FD9E
:1004C6007BA07A867901F8120711E47B06FAF9F81F
:1004D600120904D003D002D001D000EF2BFFEE3A70
:1004E600FEED39FDEC38FCC004C005C006C007901F
:1004F6000025E024D0FFE434FFFE7C007D64120674
:10050600AAAA06AB07900024E024D0FFE434FFFE3D
:100516007C037DE81206AAEF2BFBEE3AFA90002642
:10052600E024D0FFE434FFFE7C007D0A1206AAEF29
:100536002BFFEE3AFEA3E024D0FDEC34FFCD2FFFD7
:10054600ED3EFE7D0A1206AA7D061206BCE4FCFDFF
:10055600D003D002D001D000EB2FFFEA3EFEED39EA
:10056600FDEC388F0D8E0C8D0BF50A7FC012000343
:100576007F4A1209C87F441209C87F3A1209C87B0C
:10058600007AE179F57805AF0DAE0CAD0BAC0A1229
:1005960009C17B007AE179F57805AF0DAE0CAD0B9C
:1005A600AC0A12079CAC00AD01AE02AF037B807AA9
:1005B60096799878001209C17B807A9679987800A6
:1005C600AF0DAE0CAD0BAC0A12079CAC00AD01AE84
:1005D60002AF037B407A42790F78001209C17F2E61
:1005E6001209C87B407A42790F7800AF0DAE0CAD88
:1005F6000BAC0A12079CAC00AD01AE02AF037BA0A8
:100606007A86790178001209C1AF0DAE0CAD0BAC3C
:100616000A1209A7E47B107A27F9F8AF0DAE0CADE4
:100626000BAC0A12079CAC00AD01AE02AF03E47B33
:10063600E87A031209BFE47BE87A03F9F8AF0DAE56
:100646000CAD0BAC0A12079CAC00AD01AE02AF03B9
:10065600E47B64FA1209BFE47B64FAF9F8AF0DAEE5
:100666000CAD0BAC0A12079CAC00AD01AE02AF0399
:10067600E47B0AFA1209BFE47B0AFAF9F8AF0DAE79
:100686000CAD0BAC0A12079CEB2430FF1209C89084
:10069600002AE0FF1209C87F201209C87F2012092C
:0406A600C802003B4B
:03000B000209F0F7
:0409F000C0E0C0D0D3
:1009F400758C4B758AFF0512E512C3943C4005754E
:040A04001200B2002A
:050A0800D0D0D0E03267
:0300000002082EC5
:0C082E00787FE4F6D8FD75812002087583
:1006AA00EF8DF0A4A8F0CF8CF0A428CE8DF0A42E64
:0206BA00FE221E
:1006BC00BC000BBE0029EF8DF084FFADF022E4CC22
:1006CC00F875F008EF2FFFEE33FEEC33FCEE9DECEB
:1006DC00984005FCEE9DFE0FD5F0E9E4CEFD22ED31
:1006EC00F8F5F0EE8420D21CFEADF075F008EF2F7B
:1006FC00FFED33FD4007985006D5F0F222C398FD6C
:05070C000FD5F0EA2208
:10071100E88FF0A4CC8BF0A42CFCE98EF0A42CFC87
:100721008AF0EDA42CFCEA8EF0A4CDA8F08BF0A405
:100731002DCC3825F0FDE98FF0A42CCD35F0FCEB64
:100741008EF0A4FEA9F0EB8FF0A4CFC5F02ECD3929
:0F075100FEE43CFCEAA42DCE35F0FDE43CFC2296
:1007600075F008758200EF2FFFEE33FECD33CDCC50
:1007700033CCC58233C5829BED9AEC99E5829840D3
:100780000CF582EE9BFEED9AFDEC99FC0FD5F0D6B0
:10079000E4CEFBE4CDFAE4CCF9A88222B800C1B9DA
:1007A0000059BA002DEC8BF084CFCECDFCE5F0CB18
:1007B000F97818EF2FFFEE33FEED33FDEC33FCEB51
:1007C00033FB10D703994004EB99FB0FD8E5E4F90C
:1007D000FA227818EF2FFFEE33FEED33FDEC33FCF9
:1007E000C933C910D7059BE99A4007EC9BFCE99AED
:1007F000F90FD8E0E4C9FAE4CCFB2275F010EF2F32
:10080000FFEE33FEED33FDCC33CCC833C810D70731
:100810009BEC9AE899400AED9BFDEC9AFCE899F86C
:0E0820000FD5F0DAE4CDFBE4CCFAE4C8F922FF
:10090400C2D5E830E70FB2D5E4C39BFBE49AFAE41E
:1009140099F9E498F8EC30E717B2D512093A1207BE
:100924009CE4C39BFBE49AFAE499F9E498F8800305
:1009340012079C30D50DE4C39FFFE49EFEE49DFDA9
:04094400E49CFC2211
:10083A00020026E493A3F8E493A34003F68001F2AE
:10084A0008DFF48029E493A3F85407240CC8C333BF
:10085A00C4540F4420C8834004F456800146F6DF8E
:10086A00E4800B0102040810204080900A0DE47E07
:10087A00019360BCA3FF543F30E509541FFEE49383
:10088A00A360010ECF54C025E060A840B8E493A34A
:10089A00FAE493A3F8E493A3C8C582C8CAC583CA75
:1008AA00F0A3C8C582C8CAC583CADFE9DEE780BE2D
:010A1B0000DA
:00000001FF
